{"contracts/L1/messaging/Test.sol":{"EventListener":{"abi":[{"anonymous":false,"inputs":[{"indexed":true,"internalType":"string","name":"_name","type":"string"},{"indexed":false,"internalType":"address","name":"_newAddress","type":"address"},{"indexed":false,"internalType":"address","name":"_oldAddress","type":"address"}],"name":"AddressSet","type":"event"},{"anonymous":false,"inputs":[{"indexed":true,"internalType":"address","name":"_l1Token","type":"address"},{"indexed":true,"internalType":"address","name":"_l2Token","type":"address"},{"indexed":true,"internalType":"address","name":"_from","type":"address"},{"indexed":false,"internalType":"address","name":"_to","type":"address"},{"indexed":false,"internalType":"uint256","name":"_amount","type":"uint256"},{"indexed":false,"internalType":"bytes","name":"_data","type":"bytes"}],"name":"DepositFailed","type":"event"},{"anonymous":false,"inputs":[{"indexed":true,"internalType":"address","name":"_l1Token","type":"address"},{"indexed":true,"internalType":"address","name":"_l2Token","type":"address"},{"indexed":true,"internalType":"address","name":"_from","type":"address"},{"indexed":false,"internalType":"address","name":"_to","type":"address"},{"indexed":false,"internalType":"uint256","name":"_amount","type":"uint256"},{"indexed":false,"internalType":"bytes","name":"_data","type":"bytes"}],"name":"DepositFinalized","type":"event"},{"anonymous":false,"inputs":[{"indexed":true,"internalType":"address","name":"previousOwner","type":"address"},{"indexed":true,"internalType":"address","name":"newOwner","type":"address"}],"name":"OwnershipTransferred","type":"event"},{"anonymous":false,"inputs":[{"indexed":true,"internalType":"address","name":"_l1Token","type":"address"},{"indexed":true,"internalType":"address","name":"_l2Token","type":"address"}],"name":"StandardL2TokenCreated","type":"event"},{"anonymous":false,"inputs":[{"indexed":true,"internalType":"address","name":"_l1Token","type":"address"},{"indexed":true,"internalType":"address","name":"_l2Token","type":"address"},{"indexed":true,"internalType":"address","name":"_from","type":"address"},{"indexed":false,"internalType":"address","name":"_to","type":"address"},{"indexed":false,"internalType":"uint256","name":"_amount","type":"uint256"},{"indexed":false,"internalType":"bytes","name":"_data","type":"bytes"}],"name":"WithdrawalInitiated","type":"event"},{"inputs":[],"name":"emitAddressSet","outputs":[],"stateMutability":"nonpayable","type":"function"},{"inputs":[],"name":"emitDepositFailed","outputs":[],"stateMutability":"nonpayable","type":"function"},{"inputs":[],"name":"emitDepositFinalized","outputs":[],"stateMutability":"nonpayable","type":"function"},{"inputs":[],"name":"emitOwnershipTransferred","outputs":[],"stateMutability":"nonpayable","type":"function"},{"inputs":[],"name":"emitStandardL2TokenCreated","outputs":[],"stateMutability":"nonpayable","type":"function"},{"inputs":[],"name":"emitWithdrawalInitiated","outputs":[],"stateMutability":"nonpayable","type":"function"}],"devdoc":{"details":"The L1 Cross Domain Messenger contract sends messages from L1 to L2, and relays messages from L2 onto L1. In the event that a message sent from L1 to L2 is rejected for exceeding the L2 epoch gas limit, it can be resubmitted via this contract's replay function.","kind":"dev","methods":{},"title":"L1CrossDomainMessenger","version":1},"evm":{"bytecode":{"linkReferences":{},"object":"608060405234801561001057600080fd5b50610304806100206000396000f3fe608060405234801561001057600080fd5b50600436106100725760003560e01c80635d19b3cc116100505780635d19b3cc14610091578063824080d214610099578063d7e25780146100a157600080fd5b806308316757146100775780632eaa220e146100815780633ef9fa0314610089575b600080fd5b61007f6100a9565b005b61007f6100f7565b61007f610126565b61007f610155565b61007f610199565b61007f6101f6565b6040805160208101825260008082529151829182917f73d170910aba9e6d50b102db522b1dbcd796216f5128b445aa2135272886497e916100ed9184918291610236565b60405180910390a4565b60405160009081907fceeb8e7d520d7f3b65fc11a262b91066940193b05d4f93df07cfdced0eb551cf908290a3565b60405160009081907f8be0079c531659141344cd1fd0a4f28419497f9722a3daafe3b4186f6b6457e0908290a3565b6040805160208101825260008082529151829182917f7ea89a4591614515571c2b51f5ea06494056f261c10ab1ed8c03c7590d87bce0916100ed9184918291610236565b60408051600080825260208201527fc5d2460186f7233c927e7db2dcc703c0e500b653ca82273b7bfad8045d85a470917f9416a153a346f93d95f94b064ae3f148b6460473c6e82b3f9fc2521b873fcd6c910160405180910390a2565b6040805160208101825260008082529151829182917fb0444523268717a02698be47d0803aa7468c00acbed2f8bd93a0459cde61dd89916100ed91849182915b73ffffffffffffffffffffffffffffffffffffffff8416815260006020848184015260606040840152835180606085015260005b818110156102865785810183015185820160800152820161026a565b81811115610298576000608083870101525b50601f017fffffffffffffffffffffffffffffffffffffffffffffffffffffffffffffffe016929092016080019594505050505056fea26469706673582212202d141bf0c38bece6fbe07e64c690adc0603ddde3037c319f5451941e21a8aed764736f6c63430008090033","opcodes":"PUSH1 0x80 PUSH1 0x40 MSTORE CALLVALUE DUP1 ISZERO PUSH2 0x10 JUMPI PUSH1 0x0 DUP1 REVERT JUMPDEST POP PUSH2 0x304 DUP1 PUSH2 0x20 PUSH1 0x0 CODECOPY PUSH1 0x0 RETURN INVALID PUSH1 0x80 PUSH1 0x40 MSTORE CALLVALUE DUP1 ISZERO PUSH2 0x10 JUMPI PUSH1 0x0 DUP1 REVERT JUMPDEST POP PUSH1 0x4 CALLDATASIZE LT PUSH2 0x72 JUMPI PUSH1 0x0 CALLDATALOAD PUSH1 0xE0 SHR DUP1 PUSH4 0x5D19B3CC GT PUSH2 0x50 JUMPI DUP1 PUSH4 0x5D19B3CC EQ PUSH2 0x91 JUMPI DUP1 PUSH4 0x824080D2 EQ PUSH2 0x99 JUMPI DUP1 PUSH4 0xD7E25780 EQ PUSH2 0xA1 JUMPI PUSH1 0x0 DUP1 REVERT JUMPDEST DUP1 PUSH4 0x8316757 EQ PUSH2 0x77 JUMPI DUP1 PUSH4 0x2EAA220E EQ PUSH2 0x81 JUMPI DUP1 PUSH4 0x3EF9FA03 EQ PUSH2 0x89 JUMPI JUMPDEST PUSH1 0x0 DUP1 REVERT JUMPDEST PUSH2 0x7F PUSH2 0xA9 JUMP JUMPDEST STOP JUMPDEST PUSH2 0x7F PUSH2 0xF7 JUMP JUMPDEST PUSH2 0x7F PUSH2 0x126 JUMP JUMPDEST PUSH2 0x7F PUSH2 0x155 JUMP JUMPDEST PUSH2 0x7F PUSH2 0x199 JUMP JUMPDEST PUSH2 0x7F PUSH2 0x1F6 JUMP JUMPDEST PUSH1 0x40 DUP1 MLOAD PUSH1 0x20 DUP2 ADD DUP3 MSTORE PUSH1 0x0 DUP1 DUP3 MSTORE SWAP2 MLOAD DUP3 SWAP2 DUP3 SWAP2 PUSH32 0x73D170910ABA9E6D50B102DB522B1DBCD796216F5128B445AA2135272886497E SWAP2 PUSH2 0xED SWAP2 DUP5 SWAP2 DUP3 SWAP2 PUSH2 0x236 JUMP JUMPDEST PUSH1 0x40 MLOAD DUP1 SWAP2 SUB SWAP1 LOG4 JUMP JUMPDEST PUSH1 0x40 MLOAD PUSH1 0x0 SWAP1 DUP2 SWAP1 PUSH32 0xCEEB8E7D520D7F3B65FC11A262B91066940193B05D4F93DF07CFDCED0EB551CF SWAP1 DUP3 SWAP1 LOG3 JUMP JUMPDEST PUSH1 0x40 MLOAD PUSH1 0x0 SWAP1 DUP2 SWAP1 PUSH32 0x8BE0079C531659141344CD1FD0A4F28419497F9722A3DAAFE3B4186F6B6457E0 SWAP1 DUP3 SWAP1 LOG3 JUMP JUMPDEST PUSH1 0x40 DUP1 MLOAD PUSH1 0x20 DUP2 ADD DUP3 MSTORE PUSH1 0x0 DUP1 DUP3 MSTORE SWAP2 MLOAD DUP3 SWAP2 DUP3 SWAP2 PUSH32 0x7EA89A4591614515571C2B51F5EA06494056F261C10AB1ED8C03C7590D87BCE0 SWAP2 PUSH2 0xED SWAP2 DUP5 SWAP2 DUP3 SWAP2 PUSH2 0x236 JUMP JUMPDEST PUSH1 0x40 DUP1 MLOAD PUSH1 0x0 DUP1 DUP3 MSTORE PUSH1 0x20 DUP3 ADD MSTORE PUSH32 0xC5D2460186F7233C927E7DB2DCC703C0E500B653CA82273B7BFAD8045D85A470 SWAP2 PUSH32 0x9416A153A346F93D95F94B064AE3F148B6460473C6E82B3F9FC2521B873FCD6C SWAP2 ADD PUSH1 0x40 MLOAD DUP1 SWAP2 SUB SWAP1 LOG2 JUMP JUMPDEST PUSH1 0x40 DUP1 MLOAD PUSH1 0x20 DUP2 ADD DUP3 MSTORE PUSH1 0x0 DUP1 DUP3 MSTORE SWAP2 MLOAD DUP3 SWAP2 DUP3 SWAP2 PUSH32 0xB0444523268717A02698BE47D0803AA7468C00ACBED2F8BD93A0459CDE61DD89 SWAP2 PUSH2 0xED SWAP2 DUP5 SWAP2 DUP3 SWAP2 JUMPDEST PUSH20 0xFFFFFFFFFFFFFFFFFFFFFFFFFFFFFFFFFFFFFFFF DUP5 AND DUP2 MSTORE PUSH1 0x0 PUSH1 0x20 DUP5 DUP2 DUP5 ADD MSTORE PUSH1 0x60 PUSH1 0x40 DUP5 ADD MSTORE DUP4 MLOAD DUP1 PUSH1 0x60 DUP6 ADD MSTORE PUSH1 0x0 JUMPDEST DUP2 DUP2 LT ISZERO PUSH2 0x286 JUMPI DUP6 DUP2 ADD DUP4 ADD MLOAD DUP6 DUP3 ADD PUSH1 0x80 ADD MSTORE DUP3 ADD PUSH2 0x26A JUMP JUMPDEST DUP2 DUP2 GT ISZERO PUSH2 0x298 JUMPI PUSH1 0x0 PUSH1 0x80 DUP4 DUP8 ADD ADD MSTORE JUMPDEST POP PUSH1 0x1F ADD PUSH32 0xFFFFFFFFFFFFFFFFFFFFFFFFFFFFFFFFFFFFFFFFFFFFFFFFFFFFFFFFFFFFFFE0 AND SWAP3 SWAP1 SWAP3 ADD PUSH1 0x80 ADD SWAP6 SWAP5 POP POP POP POP POP JUMP INVALID LOG2 PUSH5 0x6970667358 0x22 SLT KECCAK256 0x2D EQ SHL CREATE 0xC3 DUP12 0xEC 0xE6 0xFB 0xE0 PUSH31 0x64C690ADC0603DDDE3037C319F5451941E21A8AED764736F6C634300080900 CALLER "},"gasEstimates":{"creation":{"codeDepositCost":"154400","executionCost":"202","totalCost":"154602"},"external":{"emitAddressSet()":"1878","emitDepositFailed()":"3354","emitDepositFinalized()":"3387","emitOwnershipTransferred()":"1719","emitStandardL2TokenCreated()":"1697","emitWithdrawalInitiated()":"3355"}},"methodIdentifiers":{"emitAddressSet()":"824080d2","emitDepositFailed()":"5d19b3cc","emitDepositFinalized()":"d7e25780","emitOwnershipTransferred()":"3ef9fa03","emitStandardL2TokenCreated()":"2eaa220e","emitWithdrawalInitiated()":"08316757"}},"storageLayout":{"storage":[],"types":null},"userdoc":{"kind":"user","methods":{},"version":1}}}}